:1078000033C0000052C0000050C000004EC0000055
:107810004CC000004AC0000048C0000046C0000044
:1078200044C0000042C0000040C000003EC0000054
:107830003CC000003AC0000038C0000036C0000064
:10784000A9C1000032C0000030C000002EC00000FE
:107850002CC000002AC0000028C0000026C0000084
:1078600025C0000022C0000011241FBECFEFD8E0C9
:10787000DEBFCDBF14BEE0E6F0E088E18083108279
:1078800011E0A0E0B1E0E6E2FCE702C005900D9255
:10789000AA31B107D9F711E0AAE1B1E001C01D9208
:1078A000AE39B107E1F797D1BCC1AACF1F920F92B1
:1078B0000FB60F9211242F933F934F935F936F93C3
:1078C0007F938F939F93AF93BF93CF93DF93EF9368
:1078D000FF938091B90090E0887F9070883A91057D
:1078E00009F4EBC0893A910564F480389105D1F030
:1078F000803A910509F42AC18036910509F037C113
:107900000DC0803C910509F421C1883F910509F41F
:1079100022C1883B910509F02AC1D2C010921B01F7
:107920002C9A15C14091BB0050911B015130E1F0E0
:10793000513020F0543008F044C037C0442329F0BF
:10794000433038F481E080931B011092000190E4F1
:1079500004C081E280931A0190E040931A0180E014
:10796000992309F447C049C080911A01813021F060
:10797000823009F0F6C007C0403809F0F2C081E259
:1079800080931A01EEC080931B01442311F482E11D
:1079900003C0413029F482E280931A0180E0E5C0FF
:1079A000423009F0DEC082E3F7CF842F90E03091BF
:1079B0001C0120E0822B932B90931D0180931C01CE
:1079C00010C080911A01823221F0823309F0C9C0BF
:1079D0000CC0E52FF0E0E65EFE4F4083533808F020
:1079E000C2C05F5F50931B01D9CF5F5F50931B01F3
:1079F00082E0BBC010921B0190E02091BC00206887
:107A0000292B2093BC00813009F03FC020911C013C
:107A100030911D0188E72030380708F0A8C083E0C6
:107A2000F90180935700E89507B600FCFDCFC0E44C
:107A3000AEE1B1E0D1E0A9014A1B5B0BFD018C91E5
:107A400090E011967C91119760E0862B972B12960F
:107A5000E40FF51F0C01D0935700E8951124C15095
:107A600069F7C90180589F4F90931D0180931C01B5
:107A700085E0F90180935700E89507B600FCFDCF3B
:107A800081E180935700E89572C0823009F06FC0A1
:107A900080911C0181BD80911D0182BD40BD8091FE
:107AA0001C0190911D01019690931D0180931C0172
:107AB000FA9AF99AF999FECF5AC010921B012C9AA2
:107AC00080911A018231A1F0833118F48130D1F50F
:107AD00005C08232C9F08233A9F522C080911B0112
:107AE000E82FF0E0EF5FFE4FE0818F5F8F7009C0FD
:107AF00080911B01E82FF0E0EF5EFE4FE0818F5F89
:107B0000877080931B011FC0E0911C01F0911D0143
:107B1000CF01019690931D0180931C01E49113C045
:107B200080911C0181BD80911D0182BDF89A8091D8
:107B30001C0190911D01019690931D0180931C01E1
:107B4000E0B501C0EFEFE093BB0001C02C9880913D
:107B5000BC00806C03C08091BC00806D8093BC0031
:107B600006C080E047CF81E045CF90E446CFFF914B
:107B7000EF91DF91CF91BF91AF919F918F917F91C5
:107B80006F915F914F913F912F910F900FBE0F908A
:107B90001F9018951F920F920FB60F9211248F937A
:107BA0009F938CE386BD85B190E2892785B980914A
:107BB0000001823020F081508093000105C08130A7
:107BC00019F481E280931A019F918F910F900FBE5B
:107BD0000F901F90189580E384B92D9A81E085BF9E
:107BE00092E095BF95E095BD80936E0082E580930D
:107BF000BA0085E48093BC00789480911A018132A8
:107C0000E1F7F8941092BC0010926E0015BC81E070
:107C100085BF15BE15B8E0E0F0E000003197E9F748
:067C20000995F894FFCF66
:107C2600C8545749424F4F546D3332387076322E0E
:0A7C3600311E950F80780004000055
:040000030000780081
:00000001FF
